{
  "contractName": "MedicalRecord",
  "abi": [
    {
      "inputs": [],
      "stateMutability": "nonpayable",
      "type": "constructor"
    },
    {
      "inputs": [
        {
          "internalType": "address",
          "name": "user",
          "type": "address"
        }
      ],
      "name": "authorizeUser",
      "outputs": [],
      "stateMutability": "nonpayable",
      "type": "function"
    },
    {
      "inputs": [
        {
          "internalType": "address",
          "name": "user",
          "type": "address"
        }
      ],
      "name": "removeAuthorization",
      "outputs": [],
      "stateMutability": "nonpayable",
      "type": "function"
    },
    {
      "inputs": [
        {
          "internalType": "address",
          "name": "user",
          "type": "address"
        },
        {
          "internalType": "enum MedicalRecord.Roles",
          "name": "role",
          "type": "uint8"
        }
      ],
      "name": "setUserRole",
      "outputs": [],
      "stateMutability": "nonpayable",
      "type": "function"
    },
    {
      "inputs": [
        {
          "internalType": "bytes32",
          "name": "key",
          "type": "bytes32"
        }
      ],
      "name": "getRecord",
      "outputs": [
        {
          "internalType": "bytes",
          "name": "",
          "type": "bytes"
        }
      ],
      "stateMutability": "view",
      "type": "function",
      "constant": true
    },
    {
      "inputs": [
        {
          "internalType": "bytes32",
          "name": "key",
          "type": "bytes32"
        },
        {
          "internalType": "bytes",
          "name": "data",
          "type": "bytes"
        },
        {
          "internalType": "uint256",
          "name": "expirationDate",
          "type": "uint256"
        },
        {
          "internalType": "uint8",
          "name": "minRole",
          "type": "uint8"
        },
        {
          "internalType": "address[]",
          "name": "authorizedUsers",
          "type": "address[]"
        }
      ],
      "name": "setRecord",
      "outputs": [],
      "stateMutability": "nonpayable",
      "type": "function"
    },
    {
      "inputs": [
        {
          "internalType": "bytes32",
          "name": "key",
          "type": "bytes32"
        }
      ],
      "name": "deleteRecord",
      "outputs": [],
      "stateMutability": "nonpayable",
      "type": "function"
    },
    {
      "inputs": [],
      "name": "getOwner",
      "outputs": [
        {
          "internalType": "address",
          "name": "",
          "type": "address"
        }
      ],
      "stateMutability": "view",
      "type": "function",
      "constant": true
    }
  ],
  "bytecode": "0x608060405234801561001057600080fd5b50600080546001600160a01b031916331790556109df806100326000396000f3fe608060405234801561001057600080fd5b506004361061007d5760003560e01c806367c2a3601161005b57806367c2a36014610285578063893d20e8146102ab5780638c0dacf2146102cf57806394f3f81d146102ec5761007d565b806303a6961114610082578063213681cd146100b35780635a715e9914610145575b600080fd5b6100b16004803603604081101561009857600080fd5b5080356001600160a01b0316906020013560ff16610312565b005b6100d0600480360360208110156100c957600080fd5b5035610393565b6040805160208082528351818301528351919283929083019185019080838360005b8381101561010a5781810151838201526020016100f2565b50505050905090810190601f1680156101375780820380516001836020036101000a031916815260200191505b509250505060405180910390f35b6100b1600480360360a081101561015b57600080fd5b8135919081019060408101602082013564010000000081111561017d57600080fd5b82018360208201111561018f57600080fd5b803590602001918460018302840111640100000000831117156101b157600080fd5b91908080601f016020809104026020016040519081016040528093929190818152602001838380828437600092019190915250929584359560ff6020870135169591945092506060810191506040013564010000000081111561021357600080fd5b82018360208201111561022557600080fd5b8035906020019184602083028401116401000000008311171561024757600080fd5b91908080602002602001604051908101604052809392919081815260200183836020028082843760009201919091525092955061059e945050505050565b6100b16004803603602081101561029b57600080fd5b50356001600160a01b031661069c565b6102b3610709565b604080516001600160a01b039092168252519081900360200190f35b6100b1600480360360208110156102e557600080fd5b5035610718565b6100b16004803603602081101561030257600080fd5b50356001600160a01b03166107a2565b6000546001600160a01b0316331461035b5760405162461bcd60e51b81526004018080602001828103825260278152602001806109836027913960400191505060405180910390fd5b6001600160a01b0382166000908152600460205260409020805482919060ff1916600183600281111561038a57fe5b02179055505050565b3360009081526002602052604090205460609060ff166103e45760405162461bcd60e51b815260040180806020018281038252602e815260200180610928602e913960400191505060405180910390fd5b6000828152600160209081526040808320600390925290912060028101544210610455576040805162461bcd60e51b815260206004820152601860248201527f54686973207265636f72642068617320657870697265642e0000000000000000604482015290519081900360640190fd5b60018101543360009081526004602052604090205460ff9182169116600281111561047c57fe5b60ff1610156104bc5760405162461bcd60e51b81526004018080602001828103825260338152602001806108f56033913960400191505060405180910390fd5b3360009081526020829052604090205460ff1661050a5760405162461bcd60e51b815260040180806020018281038252602d815260200180610956602d913960400191505060405180910390fd5b8154604080516020601f600260001961010060018816150201909516949094049384018190048102820181019092528281529184918301828280156105905780601f1061056557610100808354040283529160200191610590565b820191906000526020600020905b81548152906001019060200180831161057357829003601f168201915b505050505092505050919050565b6000546001600160a01b031633146105e75760405162461bcd60e51b81526004018080602001828103825260278152602001806109836027913960400191505060405180910390fd5b60008581526001602090815260409091208551909161060a91839188019061080c565b5042600182810191909155600087815260036020526040812060028101879055918201805460ff191660ff87161790555b835181101561069257600182600001600086848151811061065857fe5b6020908102919091018101516001600160a01b03168252810191909152604001600020805460ff191691151591909117905560010161063b565b5050505050505050565b6000546001600160a01b031633146106e55760405162461bcd60e51b81526004018080602001828103825260278152602001806109836027913960400191505060405180910390fd5b6001600160a01b03166000908152600260205260409020805460ff19166001179055565b6000546001600160a01b031690565b6000546001600160a01b031633146107615760405162461bcd60e51b81526004018080602001828103825260278152602001806109836027913960400191505060405180910390fd5b60008181526001602052604081209061077a8282610898565b5060006001918201819055918252600360205260408220908101805460ff1916905560020155565b6000546001600160a01b031633146107eb5760405162461bcd60e51b81526004018080602001828103825260278152602001806109836027913960400191505060405180910390fd5b6001600160a01b03166000908152600260205260409020805460ff19169055565b828054600181600116156101000203166002900490600052602060002090601f0160209004810192826108425760008555610888565b82601f1061085b57805160ff1916838001178555610888565b82800160010185558215610888579182015b8281111561088857825182559160200191906001019061086d565b506108949291506108df565b5090565b50805460018160011615610100020316600290046000825580601f106108be57506108dc565b601f0160209004906000526020600020908101906108dc91906108df565b50565b5b8082111561089457600081556001016108e056fe596f757220726f6c65206973206e6f74206869676820656e6f75676820746f206163636573732074686973207265636f72642e596f7520617265206e6f7420617574686f72697a656420746f20706572666f726d207468697320616374696f6e2e596f7520617265206e6f7420617574686f72697a656420746f206163636573732074686973207265636f72642e4f6e6c7920746865206f776e65722063616e20706572666f726d207468697320616374696f6e2ea264697066735822122071305315949315fa00698a71b4770606ff0a21a89fdfd0e6c3191e0df822174064736f6c63430007060033",
  "immutableReferences": {},
  "source": "pragma solidity ^0.7.0;\n\n// It is important to thoroughly review and test any smart contract before using it.\n\ncontract MedicalRecord {\n    // The address of the owner of the contract.\n    address private owner;\n\n    // The medical records that are being stored.\n    mapping(bytes32 => Record) private records;\n\n    // The authorized users who are allowed to access the records.\n    mapping(address => bool) private authorizedUsers;\n\n    // The restrictions on access to each record.\n    mapping(bytes32 => Restrictions) private accessRestrictions;\n\n    // The data for a single medical record.\n    struct Record {\n        bytes data;\n        uint256 timestamp;\n    }\n\n    // The restrictions on access to a single record.\n    struct Restrictions {\n        // The users who are allowed to access the record.\n        mapping(address => bool) authorizedUsers;\n        // The minimum role required to access the record.\n        uint8 minRole;\n        // The expiration date for the record.\n        uint256 expirationDate;\n    }\n\n    // The roles that a user can have.\n    enum Roles {\n        Patient,\n        Doctor,\n        Administrator\n    }\n\n    // The role of each user.\n    mapping(address => Roles) private userRoles;\n\n    // The constructor sets the owner of the contract.\n    constructor() public {\n        owner = msg.sender;\n    }\n\n    // Only the owner can authorize a user to access records.\n    function authorizeUser(address user) public onlyOwner {\n        authorizedUsers[user] = true;\n    }\n\n    // Only the owner can remove a user's authorization to access records.\n    function removeAuthorization(address user) public onlyOwner {\n        authorizedUsers[user] = false;\n    }\n\n    // Only the owner can set the role of a user.\n    function setUserRole(address user, Roles role) public onlyOwner {\n        userRoles[user] = role;\n    }\n\n    // Only authorized users can access a record if the current time is before the record's expiration date\n    // and the user's role is equal to or higher than the minimum role required to access the record.\n    function getRecord(bytes32 key) public view onlyAuthorized returns (bytes memory) {\n        Record storage record = records[key];\n        Restrictions storage restrictions = accessRestrictions[key];\n        require(block.timestamp < restrictions.expirationDate, \"This record has expired.\");\n        require(uint8(userRoles[msg.sender]) >= restrictions.minRole, \"Your role is not high enough to access this record.\");\n        require(restrictions.authorizedUsers[msg.sender], \"You are not authorized to access this record.\");\n        return record.data;\n    }\n\n    // Only the owner can add or update a record.\n    function setRecord(bytes32 key, bytes memory data, uint256 expirationDate, uint8 minRole, address[] memory authorizedUsers) public onlyOwner {\n        Record storage record = records[key];\n        record.data = data;\n        record.timestamp = block.timestamp;\n        Restrictions storage restrictions = accessRestrictions[key];\n        restrictions.expirationDate = expirationDate;\n        restrictions.minRole = minRole;\n        for (uint i = 0; i < authorizedUsers.length; i++) {\n            restrictions.authorizedUsers[authorizedUsers[i]] = true;\n        }\n    }\n\n    // Only the owner can delete a record.\n    function deleteRecord(bytes32 key) public onlyOwner {\n        delete records[key];\n        delete accessRestrictions[key];\n    }\n\n    // retrieve the value of the owner  \n    function getOwner() public view returns (address) {\n        return owner;\n    }\n\n\n    // Only the owner can call these functions.\n    modifier onlyOwner {\n        require(msg.sender == owner, \"Only the owner can perform this action.\");\n        _;\n    }\n\n    // Only authorized users can call these functions.\n    modifier onlyAuthorized {\n        require(authorizedUsers[msg.sender], \"You are not authorized to perform this action.\");\n        _;\n    }\n}",
  "sourcePath": "/Users/ac12644/Desktop/MedicalRecord/contracts/MedicalRecord.sol",
  "compiler": {
    "name": "solc",
    "version": "0.7.6+commit.7338295f.Emscripten.clang"
  },
  "schemaVersion": "3.4.8",
  "updatedAt": "2023-01-02T17:04:41.677Z",
  "networkType": "ethereum",
  "devdoc": {
    "kind": "dev",
    "methods": {},
    "version": 1
  },
  "userdoc": {
    "kind": "user",
    "methods": {},
    "version": 1
  }
}